:03000000020141B9
:0C014100787FE4F6D8FD7581100201887B
:0C031B00010D00010E00010F0001100098
:1001CD00D2AF7D0A120251900000AF82AE83E4FCE3
:1001DD00FD7B407A9CF9F8D312012B4003A380EAF2
:1001ED001200037D28120251E4F583F582AF82AE31
:1001FD0083E4FCFD7B407A9CF9F8D312012B40037C
:10020D00A380EA1200037D5A120251E4F583F582B0
:10021D00AF82AE83E4FCFD7B407A9CF9F8D31201EA
:10022D002B4003A380EA120003E4F583F582AF822D
:10023D00AE83E4FCFD7B407A9CF9F8D312012B4090
:04024D0081A380EA1F
:040251007F327E007A
:020255008D0812
:10025700AB07AA06E4F9F8FF7E107D0EFC1202C276
:100267008F0C8E0B8D0A8C09AF08E4FCFDFEAB0CDE
:10027700AA0BA90AA80912000EE47B64FAF9F8127E
:100287000099AD07AC06C3E50C9DFFE50B9CAB07DA
:10029700FAC3740C9DFDE49CFCC3740C9BFBE49AAD
:1002A7008C0D8D0EF50F8B105389F0438901850D49
:0A02B7008C850E8AD2A9D28CD28069
:0102C100221A
:07000300C28CC2A9D28022C9
:03000B00020306E7
:10030600308009850F8C85108AC28032850D8C85D8
:050316000E8AD28032C6
:10014D000201CDE493A3F8E493A34003F68001F2FA
:10015D0008DFF48029E493A3F85407240CC8C333B3
:10016D00C4540F4420C8834004F456800146F6DF82
:10017D00E4800B010204081020408090031BE47EF4
:10018D00019360BCA3FF543F30E509541FFEE49377
:10019D00A360010ECF54C025E060A840B8E493A33E
:1001AD00FAE493A3F8E493A3C8C582C8CAC583CA69
:1001BD00F0A3C8C582C8CAC583CADFE9DEE780BE21
:0103270000D5
:10000E00E88FF0A4CC8BF0A42CFCE98EF0A42CFC91
:10001E008AF0EDA42CFCEA8EF0A4CDA8F08BF0A40F
:10002E002DCC3825F0FDE98FF0A42CCD35F0FCEB6E
:10003E008EF0A4FEA9F0EB8FF0A4CFC5F02ECD3933
:0F004E00FEE43CFCEAA42DCE35F0FDE43CFC22A0
:10005D0075F008758200EF2FFFEE33FECD33CDCC5A
:10006D0033CCC58233C5829BED9AEC99E5829840DD
:10007D000CF582EE9BFEED9AFDEC99FC0FD5F0D6BA
:10008D00E4CEFBE4CDFAE4CCF9A88222B800C1B9E4
:10009D000059BA002DEC8BF084CFCECDFCE5F0CB22
:1000AD00F97818EF2FFFEE33FEED33FDEC33FCEB5B
:1000BD0033FB10D703994004EB99FB0FD8E5E4F916
:1000CD00FA227818EF2FFFEE33FEED33FDEC33FC03
:1000DD00C933C910D7059BE99A4007EC9BFCE99AF7
:1000ED00F90FD8E0E4C9FAE4CCFB2275F010EF2F3C
:1000FD00FFEE33FEED33FDCC33CCC833C810D7073C
:10010D009BEC9AE899400AED9BFDEC9AFCE899F876
:0E011D000FD5F0DAE4CDFBE4CCFAE4C8F92209
:1002C200C2D5E830E70FB2D5E4C39BFBE49AFAE467
:1002D20099F9E498F8EC30E717B2D51202F8120057
:1002E20099E4C39BFBE49AFAE499F9E498F8800351
:1002F20012009930D50DE4C39FFFE49EFEE49DFDFC
:04030200E49CFC2259
:10012B00EB9FF5F0EA9E42F0E99D42F0EC6480C84B
:06013B0064809845F022EB
:00000001FF
